:020000021000EC
:10009400130101FB2326810413040105232CA4FA74
:1000A400232EB4FA032584FB8325C4FB13DF050048
:1000B400930F00002324E4FF2326F4FF832584FB0D
:1000C40013F7F5FF8325C4FB93F705002320E4FE13
:1000D4002322F4FE232C04FC232A04FC232804FCFE
:1000E400232604FC93071000232EF4FC6F00401415
:1000F400032784FE832704FEB347F700232CF4FC74
:10010400832704FE93F7F701032784FD3317F700D1
:10011400832704FE93F7F70193050002B387F540A4
:10012400832584FDB3D7F540B367F700232AF4FC95
:10013400832744FD1386070093D7F741938607006E
:100144008327C4FD9397170037170100130707503F
:1001540093973700B307F70003A5070083A547006B
:100164003307A600130F0700333FCF00B387B60051
:10017400B305FF00938705009375F7FF2324B4FEAE
:1001840093F707002326F4FE032704FE832784FE47
:10019400B347F7002328F4FC832784FE93F7F70181
:1001A400032704FD3317F700832784FE93F7F70131
:1001B40093050002B387F540832504FDB3D7F540CA
:1001C400B367F7002326F4FC8327C4FC13880700D5
:1001D40093D7F741938807008327C4FD93971700AB
:1001E40093871700371701001307075093973700B9
:1001F400B307F70003A5070083A547003307A8004A
:10020400130F0700333F0F01B387B800B305FF0096
:10021400938705009375F7FF2320B4FE93F7070037
:100224002322F4FE8327C4FD93871700232EF4FCB6
:100234000327C4FD9307C000E3DCE7EA832784FEB9
:100244009393070013030000832704FE33EE670033
:10025400832744FEB3EE770013070E0093870E0046
:1002640013050700938507000324C1041301010546
:1002740067800000130101FA232E8104232C210539
:10028400232A310523284105232651051304010699
:100294002324A4FA2326B4FA032584FA8325C4FA72
:1002A40013DA0500930A0000232C44FD232E54FD89
:1002B400832584FA13FFF5FF8325C4FA93FF050011
:1002C4002328E4FD232AF4FD232404FC232204FC34
:1002D400232004FC232E04FA9305C0002326B4FC37
:1002E4006F004013032F04FD8325C4FC9395150070
:1002F40093851500371501001305055093953500B6
:10030400B305B50003A5050083A5450093050500C5
:10031400B305BF40232EB4FA832584FD93F5F5017C
:100324000325C4FB3355B540832584FD93F5F501BE
:10033400130F0002B305BF40032FC4FBB315BF0066
:10034400B365B5002320B4FC832504FC13830500A6
:1003540093D5F54193830500832584FD33C7650058
:100364008325C4FDB3C775009375F7FF2328B4FC38
:1003740093F50700232AB4FC032F84FD8325C4FCD2
:100384009395150037150100130505509395350015
:10039400B305B50003A5050083A545009305050035
:1003A400B305BF402322B4FC832504FD93F5F50176
:1003B400032544FC3355B540832504FD93F5F5012D
:1003C400130F0002B305BF40032F44FCB315BF0055
:1003D400B365B5002324B4FC832584FC138E050087
:1003E40093D5F541938E0500832504FD33C6C501DD
:1003F400832544FDB3C6D5019375F6FF232CB4FCC5
:1004040093F50600232EB4FC8325C4FC9385F5FFE5
:100414002326B4FC8325C4FCE346B0EC832784FD87
:100424009398070013080000832704FD33E90701AC
:10043400832744FDB3E917011307090093870900D3
:1004440013050700938507000324C10503298105CB
:1004540083294105032A0105832AC10413010106E6
:1004640067800000130101FD232611022324810269
:1004740013040103B707010003A7874F83A7C74FDE
:100484002324E4FE2326F4FE032584FE8325C4FEF0
:1004940097000000E78000C02320A4FE2322B4FEBE
:1004A400032504FE832544FE97000000E780C0DC9A
:1004B400232CA4FC232EB4FC032784FE832784FD71
:1004C400631CF7000327C4FE8327C4FD6316F700EB
:1004D4009305F00F6F0080009305A00A93070000B6
:1004E400138507008320C102032481021301010341
:0404F400678000001D
:0804F800EFCDAB89674523013C
:1015000000000000000000000000000000000000DB
:10151000C5E8F8460000000085600C4600000000A9
:101520008A3BF8700000000003834B280000000095
:1015300054143E510000000022ED21F6000000008E
:101540005D062531000000005D3AA8110000000092
:101550006B6827D4000000002DD83A71000000000D
:10156000992F794B00000000DDA4992700000000AE
:10157000491C90A7000000001A87DEDE0000000072
:101580009631C0360000000049C2EFA700000000FD
:10159000B88BA761000000002B1D0A3B0000000073
:1015A00076CABF4D00000000672116AE00000000A3
:1015B0000A6BD7300000000004231943000000002C
:1015C0003114CCF6000000008063046500000000C8
:04000003100004687D
:00000001FF
