:020000021000EC
:10007400130101FE232E1100232C8100130401021D
:100084002326A4FE2324B4FE8327C4FE93A72700BB
:1000940013F7F70F832784FE93A7270093F7F70F2F
:1000A400B367F70093F7F70F638A07000327C4FECB
:1000B400832784FEB307F7006F008002832784FE42
:1000C4009387F7FF8325C4FE13850700970000007C
:1000D400E78040FA130705008327C4FEB307F7003F
:1000E400138507008320C101032481011301010248
:1000F40067800000130101FE232E1100232C8100D0
:10010400130401029307803E2326F4FE9307400163
:100114002324F4FE832584FE0325C4FE97000000F7
:10012400E78040F52322A4FEB747F9039387A70A83
:100134002320F4FE832744FE138507008320C10196
:0C01440003248101130101026780000008
:04000003100000F8F1
:00000001FF
