:020000021000EC
:10007400130101FE232E1100232C8100130401021D
:10008400930760002322F4FE930710002326F4FE56
:10009400930710002324F4FE6F008002832584FE5E
:1000A4000325C4FE97000000E78080049307050041
:1000B4002326F4FE832784FE938717002324F4FE6B
:1000C400032784FE832744FEE3DAE7FC8325C4FE8A
:1000D4001306000493070000138507008320C10161
:1000E4000324810113010102678000001306050047
:1000F4001305000093F61500638406003305C5005C
:1001040093D5150013161600E39605FE67800000CC
:040000031000007475
:00000001FF
