:020000021000EC
:10009400130101FC232E8102130401042324A4FC74
:1000A4002326B4FC832584FC2326B4FE8325C4FCC8
:1000B40013D3050093030000232464FEB715010045
:1000C4009385052783A505000325C4FEB305B50064
:1000D4002326B4FEB71501009385052783A54500A3
:1000E400032584FEB305B5002324B4FE9305100054
:1000F4002322B4FE6F00C0090325C4FE832584FEB9
:100104003345B500832584FEB315B500232CB4FC18
:10011400232E04FC0325C4FE832584FE3345B50049
:100124008325C4FEB315B5002328B4FC232A04FC9C
:10013400832544FE93951500371501001305052703
:1001440093952500B305B50003A50500832584FD1B
:10015400B305B5002326B4FE832544FE939515000C
:100164009385150037150100130505279395250080
:10017400B305B50003A50500832504FDB305B5004B
:100184002324B4FE832544FE938515002322B4FE64
:10019400032544FE9305C000E3D0A5F6832584FE21
:1001A400138E0500930E000093170E001307000032
:1001B4008325C4FE13860500930600003368C70038
:1001C400B3E8D70013070800938708001305070056
:1001D400938507000324C103130101046780000011
:1001E400130101FE232E1100232C8100232A210157
:1001F4002328310113040102B707010003A787264E
:1002040083A7C7262324E4FE2326F4FE032584FEC5
:100214008325C4FE97000000E780C0E72320A4FEE6
:100224002322B4FE832744FE13D907009309000058
:100234009307090013890700832704FE93890700A5
:1002440093070000138507008320C1010324810163
:100254000329410183290101130101026780000080
:08026800EFCDAB8967452301CE
:101270000000000000000000C5E8F84685600C464C
:101280008A3BF87003834B2854143E5122ED21F61B
:101290005D0625315D3AA8116B6827D42DD83A71C7
:1012A000992F794BDDA49927491C90A71A87DEDE78
:1012B0009631C03649C2EFA7B88BA7612B1D0A3BF8
:1012C00076CABF4D672116AE0A6BD7300423194387
:0812D0003114CCF680630465C3
:04000003100001E404
:00000001FF
