:020000021000EC
:10007400130101FE232E8100232C2101232A3101A7
:10008400130401029307E0012326F4FE930770038F
:100094002324F4FE0326C4FE832684FE032784FE61
:1000A4009307C0FFB715000013880580930800204C
:1000B4001309A00793090040B387F60093050800CD
:1000C400B387B7001388070093070900B307F70045
:1000D40013870900B387E700938807001387060096
:1000E40093070600B307F70013870800B387E700F8
:1000F4001389070093070000138507000324C10137
:100104000329810183294101130101026780000051
:040000031000007475
:00000001FF
