:020000021000EC
:10009400130101FD2326810213040103232EA4FC72
:1000A400232CB4FC8327C4FD03A70700B717010062
:1000B4009387877983A70700B307F7002324F4FE07
:1000C4008327C4FD9387470003A70700B7170100E0
:1000D4009387877983A74700B307F7002322F4FEA9
:1000E400930710002326F4FE6F00C00A032784FE42
:1000F400832744FEB347F700032744FE1377F70131
:10010400B396E7003307E0401377F701B3D7E7006E
:10011400B3E7D7000327C4FE13171700B71601006F
:1001240093868679131727003387E6000327070091
:10013400B387E7002324F4FE032744FE832784FEC9
:10014400B347F700032784FE1377F701B396E7005C
:100154003307E0401377F701B3D7E700B3E7D700DD
:100164000327C4FE1317170013071700B71601005F
:1001740093868679131727003387E6000327070041
:10018400B387E7002322F4FE8327C4FE9387170076
:100194002326F4FE0327C4FE9307C000E3F8E7F424
:1001A400832784FD032784FE23A0E700832784FD9F
:1001B40093874700032744FE23A0E70013000000B1
:1001C4000324C1021301010367800000130101FD30
:1001D4002326810213040103232EA4FC232CB4FC44
:1001E4008327C4FD83A747002324F4FE8327C4FD8B
:1001F40083A707002322F4FE9307C0002326F4FEFE
:100204006F00C00A8327C4FE9397170093871700D3
:10021400371701001307877993972700B307F7006F
:1002240083A70700032784FEB307F740032744FE90
:100234001377F701B3D6E7003307E0401377F701EC
:10024400B397E700B3E7D700032744FEB347F700AB
:100254002324F4FE8327C4FE939717003717010065
:100264001307877993972700B307F70083A707003D
:10027400032744FEB307F740032784FE1377F701EF
:10028400B3D6E7003307E0401377F701B397E700ED
:10029400B3E7D700032784FEB347F7002322F4FE15
:1002A4008327C4FE9387F7FF2326F4FE8327C4FE27
:1002B400E39A07F4B71701009387877903A74700E8
:1002C400832784FD93874700832684FE3387E64093
:1002D40023A0E700B71701009387877983A7070056
:1002E400032744FE3307F740832784FD23A0E70058
:1002F400130000000324C1021301010367800000FE
:10030400130101FB232611042324810423229104D5
:100314002320210513040105232EA4FA930740008A
:10032400232CF4FC9307F0002326F4FE232A04FC78
:100334006F004007832584FD0325C4FE9700000059
:10034400E78000399307050093972700938707FFF9
:10035400B387870083A787FD939487000327C4FB93
:100364008327C4FEB307F70083C707001389070078
:10037400832584FD0325C4FE97000000E7804035F3
:10038400930705003387240193972700938707FF7A
:10039400B387870023ACE7FC8327C4FE9387F7FF6A
:1003A4002326F4FE0327C4FE9307F0FFE314F7F8B3
:1003B400B717010003A70779B71701009387877957
:1003C40023A0E700930710002326F4FE6F00000526
:1003D4008327C4FE9387F7FF371701001307877934
:1003E40093972700B307F70003A70700B717010087
:1003F40083A747793307F700B717010093868779F6
:100404008327C4FE93972700B387F60023A0E70051
:100414008327C4FE938717002326F4FE0327C4FE14
:1004240093079001E3F6E7FA232204FE832744FEB0
:100434002324F4FE832784FE2326F4FE8327C4FEAC
:10044400232EF4FC8327C4FD2320F4FE6F00C01187
:10045400B7170100138787798327C4FE9397270072
:10046400B307F70003A70700832604FE8327C4FD10
:10047400B387F600B307F7001397370093D7D70174
:10048400B3E7E70037170100930687790327C4FE13
:10049400131727003387E6002320F700B71701005E
:1004A400138787798327C4FE93972700B307F70040
:1004B40083A707002320F4FE832784FE9397270055
:1004C400938707FFB387870003A787FD832604FE6E
:1004D4008327C4FDB387F600B307F700832604FE21
:1004E4000327C4FD3387E6001377F701B396E700CB
:1004F4003307E0401377F70133D7E7003367D700BA
:10050400832784FE93972700938707FFB387870089
:1005140023ACE7FC832784FE93972700938707FF88
:10052400B387870083A787FD232EF4FC832744FE2B
:10053400938717002322F4FE8327C4FE93871700B2
:100544009305A0011385070097000000E780C01CF5
:10055400930705002326F4FE832784FE9387170060
:1005640093F737002324F4FE032744FE9307D004B3
:10057400E3F0E7EE13000000130000008320C10441
:100584000324810483244104032901041301010584
:1005940067800000130101FA232E1104232C810427
:1005A400232A210513040106B70701009387C7779F
:1005B40083A5070003A6470083A6870003A7C700F7
:1005C4002328B4FC232AC4FC232CD4FC232EE4FCCF
:1005D40083C707012300F4FE834704FD1385070046
:1005E40097000000E78000D2B7677374938747577A
:1005F4002320F4FCB7776700938797E62322F4FC63
:10060400232404FC232604FC130704FB930704FCA3
:10061400930507001385070097000000E78080A773
:10062400130704FA930704FB9305070013850700D7
:1006340097000000E780C0B9930710002322F4FE5E
:100644009307E0FEA307F4FE9307F0002324F4FECF
:100654006F000004832784FE938707FFB387870016
:1006640003C707FD832784FE938707FFB3878700AB
:1006740083C707FB6308F7009307F0FFA307F4FEA3
:10068400232204FE832784FE9387F7FF2324F4FEAA
:10069400032784FE9307F0FFE31EF7FA8347F4FE73
:1006A40013890700232224FF930700001385070002
:1006B4008320C10503248105032941051301010693
:1006C400678000006340050663C6050613860500BF
:1006D400930505001305F0FF630C06029306100052
:1006E400637AB6006358C00013161600939616007A
:1006F400E36AB6FE1305000063E6C500B385C54092
:100704003365D50093D6160013561600E39606FEFD
:100714006780000093820000EFF05FFB1385050003
:10072400678002003305A0406348B000B305B040C1
:100734006FF0DFF9B305B04093820000EFF01FF9CA
:100744003305A040678002009382000063CA05005D
:10075400634C0500EFF09FF71385050067800200E6
:10076400B305B040E35805FE3305A040EFF01FF693
:080774003305B040678002006C
:10077C0030313233343536373839414243424A4DC1
:01078C00006C
:081790006351E1B7B979379EFE
:04000003100005984C
:00000001FF
