:020000021000EC
:10007400130101FF1305E00123261100232481004D
:1000840097000000E78080018320C10003248100E1
:100094001301010167800000130101FA232A91036F
:1000A400232E1104130710009306E5FF930C0000A0
:1000B4006350A724232441052328A1039307100098
:1000C4001386E6FF130D0000130A100063D0D71E39
:1000D400232C8104232A910423282105232E710330
:1000E4002326B1039305E6FF930D00006354CA1859
:1000F4009388E5FF930700006350BA161389E8FF5D
:10010400930B0000930ED0FF635A1A131304E9FFF4
:100114009304000063542A11232631052322510538
:1001240023206105232C810363548A0C130EE4FFFE
:100134001303C4FF130B000093090300930A000088
:100144006356CA191387E9FF130C0000635E3A076C
:1001540013050700232EC101232C6100232AC100AB
:100164002328D1002326F100232411012322B100E6
:100174002320E10097000000E78040F203270100FC
:100184001308F0FF832541001307F7FF832881003C
:100194008327C10083260101032641010323810132
:1001A400032EC101330CAC00930ED0FFE31207FB06
:1001B400130C1C009389F9FFB38A8A011387E9FFA2
:1001C400130C0000E3463AF9639C0916938A2A004B
:1001D4001303F3FF330B5B01130EFEFFE31ED3F592
:1001E400130B1B00B38464011304F4FFE3408AF48B
:1001F400631E0414938424001309F9FFB38B9B003A
:100204008329C104832A4104032B0104032C8103A1
:100214001304E9FF93040000E3402AF1631C09106E
:10022400938B2B009388F8FFB38777011389E8FF3A
:10023400930B0000930ED0FFE34A1AED6396080E69
:10024400938727009385F5FFB38DFD009388E5FF21
:1002540093070000E344BAEA6392050C938D2D00E2
:100264001306F6FF330DBD019305E6FF930D000061
:10027400E340CAE8631E0608130D2D009386F6FFBB
:1002840093071000B38CAC0103248105832441053A
:1002940003290105832BC103832DC1021386E6FFC5
:1002A400130D0000130A1000E3C4D7E2639C060494
:1002B4008320C105032A8104032D010313852C0027
:1002C400832C41031301010667800000930A100088
:1002D4001303F3FF330B5B01130EFEFFE31ED3E5A1
:1002E400130B1B00B38464011304F4FF6FF01FF0BD
:1002F4008320C105832C410313051000130101065B
:1003040067800000938C1C00930600006FF01FDBD5
:10031400130D1D00130600006FF0DFDC938D1D002C
:10032400930500006FF0DFDC93871700930800004B
:100334006FF0DFDC938B1B00130900006FF01FDDEF
:10034400938A1A00930900006FF0DFDF938414008E
:10035400130400006FF05FDD3335A00067800000F8
:040000031000007475
:00000001FF
